:020000040000FA
:060000000A128A110E280D
:10000800FE00030EF6000408F7000A08F8000A12BA
:100018008A11AF280A128A111128F901FA01FB0185
:10002800FC01FD0183120313A001A101A2018301B8
:100038000A128A11602973283F30F2000030F30059
:10004800AA280630F2000030F300AA285B30F2003C
:100058000030F300AA284F30F2000030F300AA283D
:100068006630F2000030F300AA286D30F20000304C
:10007800F300AA287D30F2000030F300AA280730E8
:10008800F2000030F300AA287F30F2000030F300BD
:10009800AA286F30F2000030F300AA287730F20067
:1000A8000030F300AA287C30F2000030F300AA28C0
:1000B8003930F2000030F300AA285E30F200003038
:1000C800F300AA287930F2000030F300AA28713032
:1000D800F2000030F300AA28F201F301AA287108FF
:1000E800003A0319782870287008003A0319202864
:1000F800013A03192528033A03192A28013A031952
:100108002F28073A03193428013A03193928033AE2
:1001180003193E28013A031943280F3A03194828BE
:10012800013A03194D28033A03195228013A0319D1
:100138005728073A03195C28013A03196128033A3A
:1001480003196628013A03196B2870287308F1000F
:100158007208F00008000B1DB228B328F228EC3012
:100168008312031381000B1189017908031DBD282F
:10017800BE28D6287B08F4007408FC007C08F4002C
:10018800F5017408F0007508F1000A128A111F20A1
:100198000A128A1170088312031388000914F901DE
:1001A800F90A0C297903031DDA28DB28F2287A08D2
:1001B800F4007408FC007C08F400F5017408F000F1
:1001C8007508F1000A128A111F200A128A11700894
:1001D8008312031388008914F9010C290B1CF528D4
:1001E800F6280729831203130618FB28FC28002980
:1001F8000130F400740887078618032904290629A2
:10020800013087020B100A128A11A0210A128A11E2
:1002180078088A0077088400760E8300FE0E7E0E2A
:1002280009000330831603178800890103308316F9
:100238000313860087010130850088018901831234
:100248000313860187018501880189018316031339
:100258000F178F160F120F149F131F129F1283125E
:1002680003131F083F3940389F00C3309F052030D3
:1002780083120313A300A30B3F2900008312031367
:100288001F140F3083120313A300A30B49294C2911
:1002980083160313811303309500161496148112E4
:1002A80081110115811401148B170B170C178B166C
:1002B800831203130C1708000A128A1115210A1257
:1002C8008A110F3083120313A400A40B69296C2927
:1002D800831203139F147D080F39A4002408FB0020
:1002E8007D08A40004300310A40CFF3E031D7729E9
:1002F80024080F39A5002508FA000A128A11B52129
:100308000A128A117D0883120313070203188D2924
:100318008E298F29051507087D02031C9429952924
:100328009B297D080706031D9A299B296F2905111A
:100338006F290A128A110E28831203130C1FA5298C
:10034800A629B4291F0CF000700C0F39003A031DC0
:10035800AE29AF29B3291E08F0007008FD000C1360
:100368000800831203139F18BA29BB29C2290F302A
:1003780083120313A300A30BBF29C22983120313FB
:040388009F140800B6
:04400E00D430FF3F6C
:00000001FF
