:020000040000FA
:060000000A128A110C280F
:10000800FE00030EF1000A08F2000A128A114A2AB9
:100018000A128A110F28F901FA018313203084008B
:100028003E300A128A11A3220A128A1183010A1287
:100038008A116A2A83120313D1004730C90049087C
:10004800CC00F1282530520603192B282C283828F3
:100058005208C90051088400490883138000013000
:10006800C9004908D107F128CD010130C607FF3082
:10007800460784000A128A1100220A128A11D20045
:10008800C900CA014A08003A03194B28F12849084F
:10009800003A03190329643A031956280D3A03193B
:1000A8005628F1284C08840083130008CF00840ADE
:1000B8000008D0000230C9004908CC07D01F6528C5
:1000C80066286F280330C9004908CD04CF09D00934
:1000D800CF0A0319D00AD201D20A5208C900490727
:1000E800013E84000A128A1100220A128A11CA00EB
:1000F8000A128A1100220A128A11CB004B085002F8
:10010800031D88284A084F0203188B288C288D283D
:1001180097280130C9004908D20705305206031D47
:100128009628972871284D08033903199C289D287B
:10013800A8282D30C900510884004908831380007D
:100148000130C9004908D1075208C9004908CE0042
:10015800E8280A30C1000030C2004E08C90049072B
:10016800013E84000A128A1100220A128A11F30041
:100178000A128A1100220A128A11F4005008F600A5
:100188004F08F5000A128A1108210A128A11740808
:1001980083120313C4007308C3000A128A114E2184
:1001A8000A128A11831203134108303ECA004A0812
:1001B800D2005208C90051088400490883138000FE
:1001C8000130C9004908D107FF30C9004908CE07E6
:1001D8004E0A031DF028F128AD280130C607FF306C
:1001E800460784000A128A1100220A128A11C900DD
:1001F8004908D2005208031D02290329262851085C
:10020800840083138001080083120313BF01C00117
:10021800730874040319112912294929BE01BE0A59
:10022800202901300310F30DF40DFF3E031D16299C
:100238000130F7007708BE07F41F23292429152960
:1002480001300310BF0DC00DFF3E031D25297408A2
:100258007602031D312973087502031C34293529D8
:100268003C297308F5027408031CF603F6023F14D0
:1002780001300310F40CF30CFF3E031D3D2901303F
:10028800BE02031D4829492924294008F4003F08D3
:10029800F300080083120313410842040319552987
:1002A80056298529C501C50A642901300310C10DE5
:1002B800C20DFF3E031D5A290130F8007808C50712
:1002C800C21F67296829592942084402031D6E295B
:1002D80041084302031C7129722978294108C30285
:1002E8004208031CC403C40201300310C20CC10C31
:1002F800FF3E031D79290130C502031D8429852984
:1003080068294408C2004308C10008000B30831262
:100318000313D3005308C6002808D400D501540895
:10032800C7005508C8002A300A128A111E200A126E
:100338008A112A300A128A1129220A128A111A30BD
:1003480083120313D3005308C6002908D400D5012B
:100358005408C7005508C8002A300A128A111E20FE
:100368000A128A112A300A128A1129220A128A11BB
:10037800080083160317880189018316031389016E
:1003880085010330860088018113033095008312AC
:100398000313850189018601880107158316031354
:1003A800161496140F178F160F120F148B178B1520
:1003B8000B100B178C15831203138C110A128A1158
:0803C80084220A128A110800C8
:1004000002308A000408840A820700340134003470
:100410000A34003464340034E834033410342734AC
:100420000D34203443346F346E34743461346434A6
:100430006F3472343D34253464340A3400340A3461
:10044000203456345F34503443343D3425346434DE
:100450000034F700F501F6013E2A75087707F4002D
:100460007408840000080A128A1199220A128A115B
:100470000130F5070318F60A0030F607750877070C
:10048000F4007408840083130008031D482A492AD5
:100490002D2A08000B1C4D2A4E2A622A83120313B0
:1004A0000808F0007008A8000618572A582A5C2A85
:1004B0000130F0007008880786185F2A602A622AD7
:1004C000013088020B1072088A00710E8300FE0E44
:1004D0007E0E09000A128A11BD210A128A118312A6
:1004E00003138C1E742A752A7B2A1A0885000508B6
:1004F000D6005608A9000A128A118A210A128A1106
:100500006F2A0A128A110C28831603131812181561
:1005100083160317871119308316031399009A0164
:1005200083120313981718131816831603139816BB
:100530000800F300831203130C1E9F2AA02A9A2A94
:1005400073089900080064008001840A04060319F6
:0605500000340406A42A99
:04400E00D420FF3F7C
:00000001FF
